:100000001428FF3FFF3FFF3F7E1480314E018C1EBE
:1000100012288C12FC304B019D0018309C000130DE
:100020004101BC007E10090015288C30840020306E
:1000300085006430FE000030FF00BA264001E20176
:10004000E301E401E501E601B330840000308500FE
:100050000A30FE000030FF00BA267E104001302832
:10006000052500304001B0000030AF002530AE0063
:100070008030AD00B7249D268D263E26C626E2267A
:10008000013056260430062440012D084101A80005
:1000900040012E084101A900AA01AB010030400136
:1000A000A3000030A2000230A1002930A0004101CD
:1000B0002B08F3002A08F2002908F1002808F000B4
:1000C0000030F7000030F6000130F5005F30F4003A
:1000D000712573084001A7007208A6007108A500E9
:1000E0007008A4006424400121084101B2004001CD
:1000F00020084101B1003208A7003108A6000430F1
:10010000062440012D084101A80040012E084101AC
:10011000A900AA01AB0100304001A3000030A200F9
:100120000230A1002930A00041012B08F3002A0869
:10013000F2002908F1002808F0000030F700003034
:10014000F6000130F5005F30F400712573084001BE
:10015000A7007208A6007108A5007008A400642416
:10016000400121084101B200400120084101B100D5
:100170003B08031954290030A5000030A4000030CA
:10018000A3000030A200B00130084001DA00DB011A
:10019000DA35DB0D8C30DC002030DD005A085C07DE
:1001A00086005B085D3D8700403FDE00413FDF0089
:1001B0005E084101A20740015F084101A33D0030F4
:1001C000A43DA53D01304001DA005A084101B007C5
:1001D00032303002031CC42800304001A30000303C
:1001E000A2000030A1003230A000410125084001EA
:1001F000A700410124084001A60041012308400155
:10020000A500410122084001A40064244001210806
:100210004101B400400120084101B300340840010D
:10022000B500410133084001B400E9214101BB019F
:1002300000304001A3000030A2000230A1002930AC
:10024000A00041013308F0003408F100F201F3018D
:100250000030F7000030F6000130F5005F30F400A8
:10026000712573084001A7007208A6007108A50057
:100270007008A4006424400121084101A10040014C
:1002800020084101A0003A08031D4C292108400123
:10029000A30041012008512932084001A300410177
:1002A00031084001A2008A2341013C0803197F283C
:1002B000BC0105300624410139084001DA00DB01A8
:1002C000DA35DB0D8C30DC002030DD005A085C07AD
:1002D00086005B085D3D87002D08C03F2E08C13FAA
:1002E0000130DA005A084101B907323039020318E7
:1002F000B9010130B5070030B63D00303602C830D4
:1003000003193502031C8829B501B601BB01BB0ADC
:100310003A08031999290130B7070030B83D0B306E
:100320003802B83003193702031C9929B701B80104
:10033000BA0126084001DA00410127084001DB002C
:10034000DC01DD01410131084001DE0041013208DC
:100350004001DF00E001E1015A08DE025B08DF3BFB
:100360005C08E03B5D08E13B61084101AF004001F2
:1003700060084101AE0040015F084101AD0040014D
:100380005E084101AC00AF1FD029AC09AD09AE0930
:10039000AF09AC0A0319AD0A0319AE0A0319AF0A73
:1003A000AF1B7F282F08031DDF292E08031DDF291F
:1003B0002D08031DDF2915302C02031C7F28410165
:1003C0003208A7003108A600BA01BA0AB701B8017D
:1003D0007F2840013408BA003508BB00BC01BD01CC
:1003E0000430062440012D08BE002E08BF00C001C5
:1003F000C1013A083E02B6003B083F3BB7003C084B
:10040000403BB8003D08413BB9003908D9003808E5
:10041000D8003708D7003608D6005908F300580826
:10042000F2005708F1005608F0000030F7000030E5
:10043000F6000030F5000530F40071257308400126
:10044000CD007208CC007108CB007008CA000030E3
:10045000F3000030F2000030F1001430F0006508C5
:10046000F7006408F6006308F5006208F40008234A
:1004700073084001C5007208C4007108C300700809
:10048000C20042084A07B60043084B3DB700440883
:100490004C3DB80045084D3DB9003908D100380839
:1004A000D0003708CF003608CE00D11B732A510880
:1004B000031D632A5008031D632AE8304E020330EF
:1004C0004F3B031C732A4001D91B732A5908031D93
:1004D000B12A5808031DB12A5708031DB12A01305B
:1004E00056020318B12A4001D11B832A5108031D6B
:1004F000862A5008031D862A4F08031D862A0130CC
:100500004E020318862A4001D91BB12A4001560821
:10051000E2075708E33D5808E43D5908E53DE51B6F
:10052000A62A6508031D9D2A6408031D9D2A213003
:1005300062024E30633B031CA62A00304001E500F6
:100540000030E4004E30E3002030E2004001E51FBF
:10055000B12A0030E5000030E4000030E300003054
:10056000E2000030F3000030F2000030F1001430FF
:10057000F00040016508F7006408F6006308F50024
:100580006208F400082373084001C9007208C8001B
:100590007108C7007008C60046084A07B600470839
:1005A0004B3DB70048084C3DB80049084D3DB900E7
:1005B0003908D5003808D4003708D3003608D200EF
:1005C000D51BF72A5508031DEE2A5408031DEE2AF1
:1005D000E93052020330533B031CF72A003040013C
:1005E000D5000030D4000330D300E830D200400101
:1005F000D51F022B0030D5000030D4000030D300CE
:100600000030D2005308F1005208F0000B26080019
:100610004001A101F31F192BF009F109F209F309B7
:10062000F00A0319F10A0319F20A0319F30AA101E6
:10063000A10AF71F2A2BF409F509F609F709F40AAC
:100640000319F50A0319F60A0319F70A0130F8002D
:100650007808A1060030A5000030A4000030A300F7
:100660000030A20073087204710470040319732B24
:10067000A001A00AF31B482B0130F035F10DF20D5B
:10068000F30D890B3D2B0130F8007808A0073A2BB9
:100690000130A235A30DA40DA50D890B492B7308BC
:1006A0007702031D5D2B72087602031D5D2B710816
:1006B0007502031D5D2B70087402031C682B700803
:1006C000F4027108F53B7208F63B7308F73B2214FD
:1006D0000130F336F20CF10CF00C890B692B013070
:1006E000A002031D482B21080319812BA209A3098D
:1006F000A409A509A20A0319A30A0319A40A031944
:10070000A50A2508F3002408F2002308F1002208B6
:10071000F0000800273040012302103003192202A4
:10072000031808000330AD002D08243E8600870121
:100730000A30F0000030F1002308F3002208F20034
:10074000A025700881000A30F0000030F10040015F
:100750002308F3002208F2003D2571084001A300A0
:100760007008A200FF30FD007D08AD07AD1F942B7F
:10077000AC01AC0AA901A90AAE0103302E06031D83
:10078000C32B0130C42B0030A80029080319E12B2A
:100790002E08243E860087010108031DE12B28084E
:1007A000031DE12BAA012E08FA26003A0319DE2BBD
:1007B00040012C080319DE2BAA01AA0A40012A08CD
:1007C000F72BA901AB012E08243E86008701010802
:1007D000FB00FC012E082526003A0319F52B4001E9
:1007E0002C080319F52BAB01AB0A40012B080319A8
:1007F000FB2B0130FC2B0030AC000130FD007D08EC
:10080000AE0704302E0203180800BD2B4001B300D0
:100810000530330603190F2CAF01B001132C033040
:10082000AF000030B00041011E0840012F06FC3926
:100830002F0641019E0040013308FD00FD0DFD0D16
:1008400041011D087D0603397D069D000D30890B91
:10085000272C000041019D149D182C2C1C084001E0
:10086000B20041011B084001B10004303306031DF2
:100870005F2C0030A3000030A2000030A1003C300B
:10088000A0003108F0003208F100F201F30100305D
:10089000F7000030F6000030F5002F30F40071252D
:1008A00073084001A7007208A6007108A50070082F
:1008B000A400642440012108B2002008B1003208DD
:1008C000AE003108AD00080000304001AB00003040
:1008D000AA000030A9000030A80023082204210447
:1008E00020040319AE2CAC01AC0AA31B832C0130ED
:1008F000A035A10DA20DA30D890B782C0130FC00B1
:100900007C08AC07752C0130A835A90DAA0DAB0DDC
:10091000890B842C23082702031D982C2208260209
:10092000031D982C21082502031D982C2008240261
:10093000031CA32C2008A4022108A53B2208A63BE7
:100940002308A73B28140130A336A20CA10CA00C4D
:10095000890BA42C0130AC02031D832C2B08A300AF
:100960002A08A2002908A1002808A00008004201C6
:100970009F151E151E1240012D08B1002E08B20051
:100980002F08B3003008B4000230B135B20DB30DFA
:10099000B40D890BC52C3408A3003308A20032081B
:1009A000A1003108A0000130A700E830A6004830BF
:1009B000A5000030A4006424FF3040012007B500EA
:1009C000FF30213DB600FF30223DB700FF30233D10
:1009D000B800350842019B0040013508B1003608D7
:1009E000B2003708B3003808B4000830B436B30C8E
:1009F000B20CB10C890BF62C310842019C001E137D
:100A00001D131D169E169D17080040019216121602
:100A100014129416141012159A1194117E01B8161E
:100A200038163811CE164E12CE114E104E11CE1071
:100A300055307D018F00AA308F000F1005307E01E8
:100A4000A00002307D01CB0003307E01A4004001F4
:100A50001415941412307D01C5001130C600073002
:100A60007E01A2000830A1004F15CF1455307D0142
:100A70008F00AA308F000F140800F501F6017008EE
:100A8000710403196C2DF701F70AF11B512D013088
:100A9000F035F10D890B482D0130F4007408F7078B
:100AA000452D0130F535F60D890B522D7108730275
:100AB000031D5C2D70087202031C632D7008F20286
:100AC0007108F33B75140130F136F00C890B642D7D
:100AD0000130F702031D512D7608F1007508F00072
:100AE00008000030FB000030FA000030F900003050
:100AF000F800701C832D7408F8077508F93D760816
:100B0000FA3D7708FB3D0130F435F50DF60DF70D94
:100B1000890B842D0130F336F20CF10CF00C890BAB
:100B20008B2D7308720471047004031D792D7B08EA
:100B3000F3007A08F2007908F1007808F000080064
:100B4000700871040319C72DF501F50AF11BB22DC8
:100B50000130F035F10D890BA92D0130F400740836
:100B6000F507A62D71087302031DB82D70087202D7
:100B7000031CBE2D7008F2027108F33B0130F13600
:100B8000F00C890BBF2D0130F502031DB22D730847
:100B9000F1007208F00008004001A101A10AA201C1
:100BA000A0012208FA26003A0319DC2D4001210891
:100BB0000319DC2DA001A00A400120080319E22D31
:100BC0000130E32D0030A1000130FC007C08A207B9
:100BD0000430220203180800D02DF400F4267435E6
:100BE000AD26F600F501052E720875020318082ED1
:100BF00075087107F3007308860087010108AD26A8
:100C0000F6000130F3007308F5077608031DF42D94
:100C1000EE267608080003307102E93003197002ED
:100C2000031C162EE830F0000330F1007108F300C9
:100C30007008F2000630F235F30D890B1B2E720896
:100C4000460194007308950008004001A000103090
:100C50007B02031C2D2E003008007B087D3E8400A3
:100C600086300318013E85000008A1007C08031DA2
:100C7000A1172108F90020086A26080046019601FC
:100C800045011008F039013890000E088F395038AE
:100C90008E00F0308E05F9308D008E174601161249
:100CA00096170030F000F1000B260800FA0008301B
:100CB0007A02031C5D2E0730FA007A08F90004302E
:100CC000F935890B602E400166088F397904E600FA
:100CD000E8260800FA0004307A02031C712E003066
:100CE00008007908F7007A08FF3E84008630031870
:100CF000013E85000008D22608003F3406345B34EC
:100D00004F3466346D347D3407347F346F34773438
:100D10007C3439345E347934713443304B019F0074
:100D2000FC309D0018309C004E018C1296169030BD
:100D30004B019E000B178B170800033052018C04E7
:100D40008C170C1FA12E41019E171E088F392038C9
:100D50009E0003309E041D140800F000DA2670087F
:100D600043018C00DA2603104301111F03140030E5
:100D7000093D08006400800101310130FE020030AD
:100D8000FF3B7F087E0403190034BB2E4301900112
:100D90001008F039083890008F170F134F308D006E
:100DA00090160800F8007730F100F201F20A780896
:100DB000ED250800430111081F39031DDA2E0F1D10
:100DC0000800DA2E41304001E600E826CC25080074
:100DD00040016608F7002430D2260800DA264301D5
:100DE0001115111D0800F12EDA2643011114111CF2
:100DF0000800F72EFB00F9017B086A26080034344E
:100E0000353436343734FF3FFF3FFF3FFF3FFF3F6E
:100E1000FF3FFF3FFF3FFF3FFF3FFF3FFF3FFF3FE2
:020000040001F9
:080000000A000C0005000100DC
:04000E00CD3FE72FCC
:00000001FF
