:100000001428FF3FFF3FFF3F7E1480314E018C1EBE
:1000100012288C12FC304B019D0018309C000130DE
:100020004001EF007E100900152841011A26A400A6
:100030004001E701E801E901EA01EB01EC01ED0112
:10004000EE01EF014101A001A101A201A3017E1077
:1000500040014B290530262340012D08B8002E0809
:10006000B900BA01BB010430262340012D08BC00B1
:100070002E08BD00BE01BF0138083C02B40039089B
:100080003D3BB5003A083E3BB6003B083F3BB7005E
:100090003708D7003608D6003508D5003408D40014
:1000A0005708F3005608F2005508F1005408F00014
:1000B0000030F7000030F6000030F5000530F400A5
:1000C000942473084001CB007208CA007108C9006B
:1000D0007008C8000030F3000030F2000030F1007A
:1000E0001430F0006A08F7006908F6006808F500A7
:1000F0006708F400282273084001C3007208C20098
:100100007108C1007008C00040084807B4004108E9
:10011000493DB50042084A3DB60043084B3DB70093
:100120003708CF003608CE003508CD003408CC00A3
:10013000CF1BB6284F08031DA6284E08031DA6286E
:10014000E8304C0203304D3B031CB6284001D71B5E
:10015000B6285708031DF4285608031DF42855082F
:10016000031DF428013054020318F4284001CF1B6A
:10017000C6284F08031DC9284E08031DC9284D086D
:10018000031DC92801304C020318C9284001D71BA0
:10019000F42840015408E7075508E83D5608E93DB2
:1001A0005708EA3DEA1BE9286A08031DE0286908A8
:1001B000031DE028213067024E30683B031CE9280C
:1001C00000304001EA000030E9004E30E800203005
:1001D000E7004001EA1FF4280030EA000030E9009F
:1001E0000030E8000030E7000030F3000030F2009B
:1001F0000030F1001430F00040016A08F70069088F
:10020000F6006808F5006708F4002822730840012A
:10021000C7007208C6007108C5007008C400440811
:100220004807B4004508493DB50046084A3DB600B8
:1002300047084B3DB7003708D3003608D2003508D1
:10024000D1003408D000D31B3A295308031D3129AB
:100250005208031D3129E93050020330513B031C81
:100260003A2900304001D3000030D2000330D100E1
:10027000E830D0004001D31F45290030D3000030C2
:10028000D2000030D1000030D0005108F1005008F9
:10029000F0002E250800252400304001B000003079
:1002A000AF002530AE008030AD00D723C025B0258B
:1002B0006125DD25F9250130792505302623043017
:1002C00026234001DB01DC010530262340012D08F7
:1002D000DD002E08DE00DF01E0010030A300003069
:1002E000A2000230A1002930A0006008F3005F08DE
:1002F000F2005E08F1005D08F0000030F700003009
:10030000F6000130F5005F30F400942473084001DA
:10031000A7007208A6007108A5007008A400842335
:1003200040012108DA002008D900043026234001CA
:100330002D08DD002E08DE00DF01E0010030A30003
:100340000030A2000230A1002930A0006008F300B4
:100350005F08F2005E08F1005D08F0000030F70071
:100360000030F6000130F5005F30F400942473088B
:100370004001A7007208A6007108A5007008A4003B
:10038000842340012108E2002008E1006D080319E0
:10039000D8292A204001ED016C08031DD3295A08F1
:1003A000A3005908D6296208A3006108A200AA2266
:1003B00040016F0803196429EF010130D800580883
:1003C000EE076C080319F42901304101A007003041
:1003D000A13D0B302102B93003192002031CF4297E
:1003E000A001A1014001EC01333040016E02031C69
:1003F000FC29EE01ED01ED0A5B086102E3005C08F7
:10040000623BE400E501E601E61F112AE309E40985
:10041000E509E609E30A0319E40A0319E50A0319E1
:10042000E60AE61B64296608031D202A6508031DE9
:10043000202A6408031D202A15306302031C642946
:1004400040016208DC006108DB00EC01EC0A642971
:100450004001A101F31F392AF009F109F209F3095A
:10046000F00A0319F10A0319F20A0319F30AA101A8
:10047000A10AF71F4A2AF409F509F609F709F40A4F
:100480000319F50A0319F60A0319F70A0130F800EF
:100490007808A1060030A5000030A4000030A300B9
:1004A0000030A20073087204710470040319932AC7
:1004B000A001A00AF31B682A0130F035F10DF20DFE
:1004C000F30D890B5D2A0130F8007808A0075A2A3D
:1004D0000130A235A30DA40DA50D890B692A73085F
:1004E0007702031D7D2A72087602031D7D2A71089A
:1004F0007502031D7D2A70087402031C882A700887
:10050000F4027108F53B7208F63B7308F73B2214BE
:100510000130F336F20CF10CF00C890B892A013012
:10052000A002031D682A21080319A12AA209A30910
:10053000A409A509A20A0319A30A0319A40A031905
:10054000A50A2508F3002408F2002308F100220878
:10055000F000080027304001230210300319220266
:10056000031808000330AD002D08243E86008701E3
:100570000A30F0000030F1002308F3002208F200F6
:10058000C324700881000A30F0000030F1004001FF
:100590002308F3002208F200602471084001A30040
:1005A0007008A200FF30FD007D08AD07AD1FB42A22
:1005B000AC01AC0AA901A90AAE0103302E06031D45
:1005C000E32A0130E42A0030A80029080319012B8E
:1005D0002E08243E860087010108031D012B2808F0
:1005E000031D012BAA012E081126003A0319FE2A29
:1005F00040012C080319FE2AAA01AA0A40012A0870
:10060000172BA901AB012E08243E860087010108A3
:10061000FB00FC012E084825003A0319152B400168
:100620002C080319152BAB01AB0A40012B08031949
:100630001B2B01301C2B0030AC000130FD007D086D
:10064000AE0704302E0203180800DD2A4001B30073
:100650000530330603192F2BAF01B001332B0330C4
:10066000AF000030B00041011E0840012F06FC39E8
:100670002F0641019E0040013308FD00FD0DFD0DD8
:1006800041011D087D0603397D069D000D30890B53
:10069000472B000041019D149D184C2B1C08400164
:1006A000B20041011B084001B10004303306031DB4
:1006B0007F2B0030A3000030A2000030A1003C30AE
:1006C000A0003108F0003208F100F201F30100301F
:1006D000F7000030F6000030F5002F30F4009424CD
:1006E00073084001A7007208A6007108A5007008F1
:1006F000A400842340012108B2002008B100320880
:10070000AE003108AD00080000304001AB00003001
:10071000AA000030A9000030A80023082204210408
:1007200020040319CE2BAC01AC0AA31BA32B013070
:10073000A035A10DA20DA30D890B982B0130FC0053
:100740007C08AC07952B0130A835A90DAA0DAB0D7F
:10075000890BA42B23082702031DB82B220826028D
:10076000031DB82B21082502031DB82B20082402E5
:10077000031CC32B2008A4022108A53B2208A63B8A
:100780002308A73B28140130A336A20CA10CA00C0F
:10079000890BC42B0130AC02031DA32B2B08A30033
:1007A0002A08A2002908A1002808A0000800420188
:1007B0009F151E151E1240012D08B1002E08B20013
:1007C0002F08B3003008B4000230B135B20DB30DBC
:1007D000B40D890BE52B3408A3003308A2003208BE
:1007E000A1003108A0000130A700E830A600483081
:1007F000A5000030A4008423FF3040012007B5008D
:10080000FF30213DB600FF30223DB700FF30233DD1
:10081000B800350842019B0040013508B100360898
:10082000B2003708B3003808B4000830B436B30C4F
:10083000B20CB10C890B162C310842019C001E131E
:100840001D131D169E169D170800400192161216C4
:1008500094129415141112157E01CE124E114E10E1
:10086000CE10381155307D018F00AA308F000F1047
:1008700005307E01A20002307D01CB0003307E01F5
:10088000A5004E10CE1040011414941410307D01B8
:10089000C5001130C60007307E01A0000830A1005D
:1008A00042010E08CF3910388E000F08CF391038AA
:1008B0008F0055307D018F00AA308F000F14080083
:1008C000F501F6017008710403198F2CF701F70A7E
:1008D000F11B742C0130F035F10D890B6B2C0130BC
:1008E000F4007408F707682C0130F535F60D890B14
:1008F000752C71087302031D7F2C70087202031C93
:10090000862C7008F2027108F33B75140130F13641
:10091000F00C890B872C0130F702031D742C76082C
:10092000F1007508F00008000030FB000030FA000C
:100930000030F9000030F800701CA62C7408F8078D
:100940007508F93D7608FA3D7708FB3D0130F4352E
:10095000F50DF60DF70D890BA72C0130F336F20CCF
:10096000F10CF00C890BAE2C730872047104700446
:10097000031D9C2C7B08F3007A08F2007908F10033
:100980007808F0000800700871040319EA2CF501DA
:10099000F50AF11BD52C0130F035F10D890BCC2C6B
:1009A0000130F4007408F507C92C71087302031DA7
:1009B000DB2C70087202031CE12C7008F202710833
:1009C000F33B0130F136F00C890BE22C0130F502DB
:1009D000031DD52C7308F1007208F00008004001D7
:1009E000A101A10AA201A00122081126003A0319BF
:1009F000FF2C400121080319FF2CA001A00A40018F
:100A000020080319052D0130062D0030A10001300A
:100A1000FC007C08A2070430220203180800F32C13
:100A2000F4000B267435D025F600F501282D720848
:100A3000750203182B2D75087107F30073088600E3
:100A400087010108D025F6000130F3007308F5078F
:100A50007608031D172D052676080800033071025D
:100A6000E93003197002031C392DE830F00003301F
:100A7000F1007108F3007008F2000630F235F30D52
:100A8000890B3E2D720846019400730895000800FA
:100A90004001A00010307B02031C502D00300800E4
:100AA0007B08A03E840085300318013E85000008C5
:100AB000A1007C08031DA1172108F90020088D253D
:100AC00008004601960145011008F03901389000F0
:100AD0000E088F3950388E00F0308E05F9308D00B9
:100AE0008E174601161296170030F000F1002E25E1
:100AF0000800FA0008307A02031C802D0730FA0043
:100B00007A08F9000430F935890B832D40016B0810
:100B10008F397904EB00FF250800FA0004307A02CF
:100B2000031C942D003008007908F7007A08163E5F
:100B3000840086300318013E85000008E92508007E
:100B40003F3406345B344F3466346D347D340734BF
:100B50007F346F3477347C3439345E347934713493
:100B600043304B019F00FC309D0018309C004E012B
:100B70008C12961690304B019E000B178B170800B5
:100B8000033052018C048C170C1FC42D41019E1799
:100B90001E088F3920389E0003309E041D14080063
:100BA000F000F125700843018C00F125031043018A
:100BB000111F03140030093D080043019001100883
:100BC000F039083890008F170F134F308D009016B2
:100BD0000800F8007730F100F201F20A78081025D9
:100BE0000800430111081F39031DF12D0F1D0800D6
:100BF000F12D41304001EB00FF25EF2408004001BA
:100C00006B08F7002430E9250800F1254301111590
:100C1000111D0800082EF12543011114111C0800B4
:100C20000E2EFB00F9017B088D2508003434353485
:100C3000363437340534FF3FFF3FFF3FFF3FFF3F70
:020000040001F9
:080000000100090004000A00E0
:04000E00CD3FE72FCC
:00000001FF
