:100000001428FF3FFF3FFF3F7E1480314E018C1EBE
:1000100012288C12FC304B019D0018309C000130DE
:100020004001E0007E10090015287726E100D90183
:10003000DA01DB01DC01DD01DE01DF01E0017E1020
:10004000400143290530E02470084001AA007108EE
:10005000AB00AC01AD010430E02470084001AE00FB
:100060007108AF00B001B1012A082E02A6002B08CA
:100070002F3BA7002C08303BA8002D08313BA900DE
:100080002908C9002808C8002708C7002608C60094
:100090004908F9004808F8004708F7004608F60044
:1000A0000030FD000030FC000030FB000530FA009D
:1000B000822479084001BD007808BC007708BB00A5
:1000C0007608BA000030F3000030F2000030F10092
:1000D0001430F0005C08F7005B08F6005A08F500E1
:1000E0005908F400362273084001B5007208B400C4
:1000F0007108B3007008B20032083A07A60033084E
:100100003B3DA70034083C3DA80035083D3DA90013
:100110002908C1002808C0002708BF002608BE0023
:10012000C11BAE284108031D9E284008031D9E28C0
:10013000E8303E0203303F3B031CAE284001C91BA0
:10014000AE284908031DEC284808031DEC28470881
:10015000031DEC28013046020318EC284001C11BA6
:10016000BE284108031DC1284008031DC1283F08BF
:10017000031DC12801303E020318C1284001C91BDC
:10018000EC2840014608D9074708DA3D4808DB3D1E
:100190004908DC3DDC1BE1285C08031DD8285B080E
:1001A000031DD828213059024E305A3B031CE12848
:1001B00000304001DC000030DB004E30DA0020303F
:1001C000D9004001DC1FEC280030DC000030DB00EF
:1001D0000030DA000030D9000030F3000030F200C7
:1001E0000030F1001430F00040015C08F7005B08BB
:1001F000F6005A08F5005908F40036227308400149
:10020000B9007208B8007108B7007008B600360867
:100210003A07A60037083B3DA70038083C3DA80038
:1002200039083D3DA9002908C5002808C400270851
:10023000C3002608C200C51B32294508031D292911
:100240004408031D2929E93042020330433B031CC3
:10025000322900304001C5000030C4000330C30023
:10026000E830C2004001C51F3D290030C500003004
:10027000C4000030C3000030C2004308F10042084F
:10028000F00047250800132400304001B50000307D
:10029000B4002530B3008030B2008723EB25DB2586
:1002A0007A2522265526013092250530E024043097
:1002B000E0244001CE01CF01D00103304001CB004A
:1002C0000830CA007730890B6329CA0B6329CB0B2E
:1002D0006329222000304001A7000030A600003032
:1002E000A5004D30A4000530E02470084001CA008C
:1002F0007108CB00CC01CD014D08F9004C08F80085
:100300004B08F7004A08F6000030FD000030FC0002
:100310000030FB002D30FA00822479084001AB0048
:100320007808AA007708A9007608A80034234001BD
:100330002508D2002408D1000030A7000030A60014
:100340000030A5004D30A4000430E02470084001C6
:10035000CA007108CB00CC01CD014D08F9004C0852
:10036000F8004B08F7004A08F6000030FD000030A6
:10037000FC000030FB002D30FA0082247908400197
:10038000AB007808AA007708A9007608A8003423F3
:1003900040012508D4002408D3005008031DEA2991
:1003A0005208A8005108A7006D30A9008630AA00A5
:1003B000152640015408A8005308A7004F30A90093
:1003C0008630AA00152640015208A3005108A20059
:1003D000B822F1295408A3005308A200B822400112
:1003E000D0014001600803195D29E0014E08530265
:1003F000D5004F08543BD600D701D801D81F0B2A8F
:10040000D509D609D709D809D50A0319D60A031977
:10041000D70A0319D80A5608A8005508A700FF30C4
:10042000A9008530AA0015264001D81B5D2958086F
:10043000031D242A5708031D242A5608031D242AB5
:100440000B305502031C5D2940015608A8005508D1
:10045000A7002E30A9008630AA00152640015408B6
:10046000CF005308CE00D001D00A5D294001A10180
:10047000F31F472AF009F109F209F309F00A0319F9
:10048000F10A0319F20A0319F30AA101A10AF71FDD
:10049000582AF409F509F609F709F40A0319F50AC7
:1004A0000319F60A0319F70A0130F8007808A106C3
:1004B0000030A5000030A4000030A3000030A200EE
:1004C00073087204710470040319A12AA001A00A20
:1004D000F31B762A0130F035F10DF20DF30D890B87
:1004E0006B2A0130F8007808A007682A0130A2358D
:1004F000A30DA40DA50D890B772A73087702031DA0
:100500008B2A72087602031D8B2A71087502031D5F
:100510008B2A70087402031C962A7008F402710872
:10052000F53B7208F63B7308F73B22140130F336B3
:10053000F20CF10CF00C890B972A0130A002031D7C
:10054000762A21080319AF2AA209A309A409A5093B
:10055000A20A0319A30A0319A40A0319A50A250864
:10056000F3002408F2002308F1002208F00008003C
:10057000273040012302103003192202031808001B
:100580000330AD002D08243E860087010A30F000BC
:100590000030F1002308F3002208F200B4247008B0
:1005A00081000A30F0000030F10040012308F30020
:1005B0002208F2004E2471084001A3007008A20036
:1005C000FF30FD007D08AD07AD1FC22AAC01AC0AAB
:1005D000A901A90AAE0103302E06031DF12A01303C
:1005E000F22A0030A800290803190F2B2E08243EF8
:1005F000860087010108031D0F2B2808031D0F2B00
:10060000AA012E087226003A03190C2B40012C086F
:1006100003190C2BAA01AA0A40012A08252BA901BB
:10062000AB012E08243E860087010108FB00FC0177
:100630002E086125003A0319232B40012C080319C9
:10064000232BAB01AB0A40012B080319292B0130E6
:100650002A2B0030AC000130FD007D08AE070430CD
:100660002E0203180800EB2A00304001B0000030D1
:10067000AF000030AE000030AD002708260425048E
:10068000240403197E2BB101B10AA71B532B01309F
:10069000A435A50DA60DA70D890B482B0130AC0084
:1006A0002C08B107452B0130AD35AE0DAF0DB00DA7
:1006B000890B542B27082B02031D682B26082A02BE
:1006C000031D682B25082902031D682B2408280216
:1006D000031C732B2408A8022508A93B2608AA3B63
:1006E0002708AB3B2D140130A736A60CA50CA40C93
:1006F000890B742B0130B102031D532B3008A70066
:100700002F08A6002E08A5002D08A400080042010D
:100710009F151E151E1240013208B6003308B7009F
:100720003408B8003508B9000230B635B70DB80D39
:10073000B90D890B952B3908A7003808A600370892
:10074000A5003608A4000130AB00E830AA0048300C
:10075000A9000030A8003423FF3040012407BA006C
:10076000FF30253DBB00FF30263DBC00FF30273D5C
:10077000BD003A0842019B0040013A08B6003B0820
:10078000B7003C08B8003D08B9000830B936B80CCD
:10079000B70CB60C890BC62B360842019C001E1301
:1007A0001D131D169E169D1708004001A60178080E
:1007B0007904031D012C303047260800400126082B
:1007C000203E860087010A30F0000030F1007908F1
:1007D000F3007808F200B4247008303E8100013044
:1007E000FA007A084001A6070A30F0000030F10054
:1007F0007908F3007808F2004E247108F9007008B7
:10080000F8007808790403190E2CDE2B0130A602BB
:100810002608203E86008701010847264001260859
:1008200003190800062C4001921612169412941512
:10083000141112157E01CE124E114E10CE10381129
:1008400055307D018F00AA308F000F1005307E01DA
:10085000A20002307D01CB0003307E01A5004E10C6
:10086000CE1040011414941410307D01C5001130D5
:10087000C60007307E01A0000830A10042010E082A
:10088000CF3910388E000F08CF3910388F0055300F
:100890007D018F00AA308F000F140800F501F601CA
:1008A0007008710403197D2CF701F70AF11B622C03
:1008B0000130F035F10D890B592C0130F40074082A
:1008C000F707562C0130F535F60D890B632C7108AE
:1008D0007302031D6D2C70087202031C742C7008C7
:1008E000F2027108F33B75140130F136F00C890BFC
:1008F000752C0130F702031D622C7608F100750893
:10090000F000080000304001A3000030A2000030D9
:10091000A1000030A000761C962C7A084001A007A8
:100920007B08A13D7C08A23D7D08A33D0130FA353E
:10093000FB0DFC0DFD0D890B972C0130F936F80CE1
:10094000F70CF60C890B9E2C790878047704760452
:10095000031D8B2C40012308F9002208F800210810
:10096000F7002008F6000800700871040319DB2C5A
:10097000F501F50AF11BC62C0130F035F10D890B9C
:10098000BD2C0130F4007408F507BA2C710873020D
:10099000031DCC2C70087202031CD22C7008F202CA
:1009A0007108F33B0130F136F00C890BD32C013088
:1009B000F502031DC62C7308F1007208F000080050
:1009C000F500053075060319E82CF301F401EC2C51
:1009D0000330F3000030F40041011E087306FC39B7
:1009E00073069E007508F200F20DF20D1D087206E6
:1009F000033972069D000D30890BFC2C000041016B
:100A00009D149D18012D1C08F1001B08F000080022
:100A10004001A101A10AA201A00122087226003A08
:100A20000319182D400121080319182DA001A00A4F
:100A30004001200803191E2D01301F2D0030A10098
:100A40000130FC007C08A2070430220203180800D1
:100A50000C2DF400672674350826F600F501412DAB
:100A6000720875020318442D75087107F3007308A6
:100A70008600870101080826F6000130F30073089C
:100A8000F5077608031D302D61267608080003302F
:100A90007102E93003197002031C522DE830F00096
:100AA0000330F1007108F3007008F2000630F235EF
:100AB000F30D890B572D72084601940073089500B9
:100AC00008004001A00010307B02031C692D00309B
:100AD00008007B08CB3E840085300318013E85006A
:100AE0000008A1007C08031DA1172108F9002008B7
:100AF000A62508004601960145011008F039013885
:100B000090000E088F3950388E00F0308E05F93085
:100B10008D008E174601161296170030F000F10076
:100B200047250800FA0008307A02031C992D073087
:100B3000FA007A08F9000430F935890B9C2D400140
:100B40005F088F397904DF005B260800FA00043063
:100B50007A02031CAD2D003008007908F7007A08EE
:100B6000FB3E840085300318013E850000083726CF
:100B7000080071088400720885001200031908003B
:100B80007108840072088500000847260130F107CB
:100B90000030F23DB92D3F3406345B344F346634B7
:100BA0006D347D3407347F346F3477347C3439349A
:100BB0005E347934713443304B019F00FC309D002A
:100BC00018309C004E018C12961690304B019E00FE
:100BD0000B178B170800033052018C048C170C1F65
:100BE000EF2D41019E171E088F3920389E000330DB
:100BF0009E041D1408003434353436343734203420
:100C0000643474347434313420340D340A34003490
:100C1000F0003F26700843018C003F26031043017B
:100C2000111F03140030093D080040012808F90095
:100C30002708F800D52340012A08F2002908F1000E
:100C4000B9250800430190011008F03908389000D8
:100C50008F170F134F308D00901608002034643426
:100C600074347434203432340D340A340034F800CF
:100C70007730F100F201F20A7808292508004301D3
:100C800011081F39031D3F2E0F1D08003F2EF000D5
:100C90004E018D1D482E700842019A000800203434
:100CA000733474340D340A34003441304001DF00B1
:100CB0005B260825080040015F08F700243037262E
:100CC00008003F2643011115111D0800642E3F2620
:100CD00043011114111C08006A2E203474340D34A1
:100CE0000A340034FB00F9017B08A625080005340E
:100CF000FF3FFF3FFF3FFF3FFF3FFF3FFF3FFF3F04
:020000040001F9
:0800000004000A000C000F00CF
:04000E00CD3FE72FCC
:00000001FF
