:040000000128F82FAC
:100C4A000534F0004E018D1D2B2E2C2E272E7008F8
:100C5A0042019A000800033052018C048C170C1FC1
:100C6A00372E382E342E41019E171E088F39203810
:100C7A009E0003309E041D140800F3007308F2005E
:100C8A00F20DF20D41011D087206033972069D002C
:100C9A000D30890B4E2E000041019D149D18562ED1
:100CAA00572E532E1C08F1001B08F00008004601BD
:100CBA00960145011008F039013890000E088F3965
:100CCA0050388E00F0308E05F9308D008E174601AF
:100CDA00161296170030F000F1008631762686311A
:100CEA00080003307102E93003197002031C7E2EDA
:100CFA007F2E832EE830F0000330F1007108F300F4
:100D0A007008F2000630F235F30D890B882E72084E
:100D1A0046019400730895000800400192161216C5
:100D2A009412941594101410141112157E01CE12F7
:100D3A004E114E10CE10381155307D018F00AA3059
:100D4A008F000F1005307E01A20002307D01CB001A
:100D5A0003307E01A50055307D018F00AA308F0037
:100D6A000F14080042019F151E151E124001250886
:100D7A00A9002608AA002708AB002808AC00023000
:100D8A00A935AA0DAB0DAC0D890BC52E2C08F700A1
:100D9A002B08F6002A08F5002908F4000130FB00A8
:100DAA00E830FA004830F9000030F80087310727A8
:100DBA008631FF3074074001AD00FF30753DAE004B
:100DCA00FF30763DAF00FF30773DB0002D0842017D
:100DDA009B0040012D08A9002E08AA002F08AB008D
:100DEA003008AC000830AC36AB0CAA0CA90C890B45
:100DFA00F82E290842019C001E131D131D169E166B
:100E0A009D17080000304001A3000030A200003006
:100E1A00A1000030A0007708760475047404031951
:100E2A00172F182F592FA401A40A262F0130F435A1
:100E3A00F50DF60DF70D890B1C2F0130FC007C080F
:100E4A00A407F71F292F2A2F1B2F0130A035A10D28
:100E5A00A20DA30D890B2B2F77087B02031D3F2FB1
:100E6A0076087A02031D3F2F75087902031D3F2F6A
:100E7A0074087802031C422F432F4C2F7408F8027F
:100E8A007508F93B7608FA3B7708FB3B20140130DA
:100E9A00F736F60CF50CF40C890B4D2F0130A40231
:100EAA00031D582F592F2A2F2308F7002208F6006E
:100EBA002108F5002008F4000800863192268731BF
:100ECA0000304001A8000030A7002530A60080307D
:100EDA00A5008631B726873186313026873186319B
:100EEA005C2687315E30F0000130F10086317626CB
:100EFA0087310530863142268731043086314226D1
:100F0A00873113308631422687310030F7000030AE
:100F1A00F6000330F500FF30F40005308631422632
:100F2A00873170084001B1007108B200B301B40101
:100F3A000C30B135B20DB30DB40D890B9E2F3408A8
:100F4A00FB003308FA003208F9003108F80087314B
:100F5A000727873177084001B8007608B700750877
:100F6A00B6007408B5000030F7000030F600003013
:100F7A00F5006430F4003808FB003708FA00360838
:100F8A00F9003508F80087310727873174084001CE
:100F9A00BB003B0886312626873140013A08F1001A
:100FAA003908F00086317626873103304001B200D5
:100FBA000830B1007730890BE02FB10BE02FB20B6C
:100FCA00E02F01304001B9070030BA3DE730390659
:100FDA00033003193A06031DF32FF42F8A2FB901A0
:100FEA00BA018A2F0128863125268731BB00B9012B
:060FFA00BA014001622F64
:020000040001F9
:08000000FF3FFF3FFF3FFF3F00
:0A000E00CD3FE72FFF3FFF3FFF3F0C
:00000001FF
