:040000000128F32FB1
:100288000534203474340D340A340034FB00F90189
:100298007B08823108228131080040015808F700A4
:1002A80024308131772181310800F0004E018D1D05
:1002B8005E295F295A29700842019A000800813195
:1002C800A12181314301111411186B296C29682966
:1002D80008008131A12181314301111511197529B6
:1002E800762972290800F8007730F100F201F20A45
:1002F800780882318F228131080041304001D800CE
:100308008131512181318231B9228131080034345F
:100318003534363437342034733474340D340A3475
:100328000034430190011008F039083890008F1705
:100338000F134F308D0090160800430111081F3924
:10034800031DA729A829A1290F19AB29AC29A1297F
:1003580008003F3406345B344F3466346D347D34E2
:1003680007347F346F3477347C3439345E347934ED
:10037800713440012808F9002708F8008331C423A4
:10038800813140012A08F2002908F1008131F12168
:1003980081310800F0008131A121813170084301C9
:1003A8008C008131A121813103104301111F0314F5
:1003B8000030093D0800033052018C048C170C1FD3
:1003C800E629E729E32941019E171E088F392038BD
:1003D8009E0003309E041D140800FE297108840045
:1003E8007208850000088131592181310130F107F7
:1003F8000030F23D71088400720885001200031D68
:10040800062A072AF2290800FA0004307A02031C97
:100418000E2A0F2A112A00301E2A7908F7007A08B6
:100428008B3E840081300318013E8500000881312D
:100438007721823108004601960145011008F039FC
:10044800013890000E088F3950388E00F0308E0534
:10045800F9308D008E174601161296170030F000FD
:10046800F1008231532282310800F3007308F20050
:10047800F20DF20D41011D087206033972069D0046
:100488000D30890B452A000041019D149D184D2A05
:100498004E2A4A2A1C08F1001B08F0000800033005
:1004A8007102E93003197002031C5B2A5C2A602A76
:1004B800E830F0000330F1007108F3007008F20032
:1004C8000630F235F30D890B652A7208460194004F
:1004D8007308950008004001A00010307B02031C3F
:1004E800762A772A792A00308E2A7B08AD3E840046
:1004F80081300318013E85000008A1007C0803191B
:10050800862A872A882AA1172108F900200882311B
:10051800082282310800F400813163218231743568
:100528008131CE218231F600F501A92A75087107BB
:10053800F30073088600870101088131CE218231DA
:10054800F6000130F3007308F50776080319AD2AA1
:10055800AE2AB42A72087502031CB32AB42A9A2A4E
:1005680081316D218231760808004001A101A10A7C
:10057800A201A001220881314A218231003A0319DF
:10058800C62AC72ACF2A400121080319CC2ACD2A16
:10059800CF2AA001A00A40012008031DD42AD62A88
:1005A8000130D72A0030A1000130FC007C08A207E6
:1005B80004302202031CE12AE22ABD2A080070083E
:1005C80071040319E82AE92A122BF501F50AF52A1C
:1005D8000130F035F10D890BED2A0130F400740873
:1005E800F507F11FF82AF92AEC2A71087302031D8E
:1005F800FF2A70087202031C022B032B072B7008BA
:10060800F2027108F33B0130F136F00C890B082B2C
:100618000130F502031D112B122BF92A7308F10082
:100628007208F000080000304001A3000030A2006A
:100638000030A1000030A000741C232B242B2D2B8C
:1006480078084001A0077908A13D7A08A23D7B08F7
:10065800A33D0130F835F90DFA0DFB0D890B2E2B52
:100668000130F736F60CF50CF40C890B352B7708AE
:10067800760475047404031D422B432B202B400180
:100688002308F7002208F6002108F5002008F400E6
:10069800080040019216121694129415141112159E
:1006A8007E01CE124E114E10CE10381155307D01FC
:1006B8008F00AA308F000F1005307E01A200023093
:1006C8007D01CB0003307E01A5004E10CE10400105
:1006D8001414941410307D01C5001130C600073081
:1006E8007E01A0000830A10042010E08CF39103861
:1006F8008E000F08CF3910388F0055307D018F00DC
:10070800AA308F000F140800F501F6017008710473
:1007180003198F2B902BBF2BF701F70A9C2B013065
:10072800F035F10D890B942B0130F4007408F707AC
:10073800F11F9F2BA02B932B0130F535F60D890B5C
:10074800A12B71087302031DAB2B70087202031CE6
:10075800AE2BAF2BB42B7008F2027108F33B751463
:100768000130F136F00C890BB52B0130F702031D6F
:10077800BE2BBF2BA02B7608F1007508F0000800EF
:100788004001A60178087904031DCB2BCC2BF82B4C
:1007980030308131592183310F2C40012608203E09
:1007A800860087010A30F0000030F1007908F30074
:1007B8007808F2008231E32283317008303E8100EC
:1007C8000130FA007A084001A6070A30F00000302C
:1007D800F1007908F3007808F20083318823833127
:1007E8007108F9007008F80078087904031DFD2BDA
:1007F800FE2BD12B092C0130A6022608203E8600AC
:100808008701010881315921833140012608031DE0
:100818000E2C0F2CFF2B080042019F151E151E12CF
:1008280040013108B5003208B6003308B700340873
:10083800B8000230B535B60DB70DB80D890B1E2CB2
:100848003808A7003708A6003608A5003508A40010
:100858000130AB00E830AA004830A9000030A800F9
:10086800843160248431FF3040012407B900FF300F
:10087800253DBA00FF30263DBB00FF30273DBC00B8
:10088800390842019B0040013908B5003A08B60012
:100898003B08B7003C08B8000830B836B70CB60CAF
:1008A800B50C890B512C350842019C001E131D13F1
:1008B8001D169E169D17080000304001AF0000303D
:1008C800AE000030AD000030AC0027082604250437
:1008D80024040319702C712CB22CB001B00A7F2C9F
:1008E8000130A435A50DA60DA70D890B752C013077
:1008F800FC007C08B007A71F822C832C742C0130C5
:10090800AC35AD0DAE0DAF0D890B842C27082B022D
:10091800031D982C26082A02031D982C2508290255
:10092800031D982C24082802031C9B2C9C2CA52C06
:100938002408A8022508A93B2608AA3B2708AB3BA0
:100948002C140130A736A60CA50CA40C890BA62CD8
:100958000130B002031DB12CB22C832C2F08A70044
:100968002E08A6002D08A5002C08A40008004001A8
:10097800A101F31FC02CC12CCE2CF009F109F209FA
:10098800F309F00A0319F10A0319F20A0319F30A21
:10099800A101A10AF71FD12CD22CE12CF409F509E9
:1009A800F609F709F40A0319F50A0319F60A0319EF
:1009B800F70A0130F8007808A1060030A5000030D9
:1009C800A4000030A3000030A20073087204710470
:1009D80070040319F02CF12C322DA001A00AFF2C71
:1009E8000130F035F10DF20DF30D890BF52C0130C6
:1009F800F8007808A007F31F022D032DF42C01300E
:100A0800A235A30DA40DA50D890B042D730877023B
:100A1800031D182D72087602031D182D7108750222
:100A2800031D182D70087402031C1B2D1C2D252D69
:100A38007008F4027108F53B7208F63B7308F73B3F
:100A480022140130F336F20CF10CF00C890B262D30
:100A58000130A002031D312D322D032D2108031969
:100A6800362D372D422DA209A309A409A509A20AEA
:100A78000319A30A0319A40A0319A50A2508F300F0
:100A88002408F2002308F1002208F00008002730AB
:100A980040012302103003192202031C542D552D46
:100AA800562DEC2D0330AD002D08243E860087011D
:100AB8000A30F0000030F1002308F3002208F200A9
:100AC8008231E3228531700881000A30F00000305D
:100AD800F10040012308F3002208F2008331882343
:100AE800853171084001A3007008A200FF30FD00A5
:100AF8007D08AD07AD1F812D822D582DAC01AC0AA4
:100B0800A901A90AAE0103302E0603198C2D8E2DDA
:100B180001308F2D0030A80029080319942D952D38
:100B2800BF2D2E08243E860087010108031D9D2D38
:100B38009E2DBF2D2808031DA22DA32DBF2DAA0170
:100B48002E0881314A218531003A0319AC2DAD2D8B
:100B5800B52D40012C080319B22DB32DB52DAA01CE
:100B6800AA0A40012A08031DBA2DBC2D0130BD2D4B
:100B78000030AC00E22DA901AB012E08243E86000E
:100B880087010108FB00FC012E0882316F228531A4
:100B9800003A0319D02DD12DD92D40012C08031965
:100BA800D62DD72DD92DAB01AB0A40012B08031D3B
:100BB800DE2DE02D0130E12D0030AC000130FD00CC
:100BC8007D08AE0704302E02031CEB2DEC2D872D7B
:100BD800080083314D23853100304001B4000030D6
:100BE800B3002530B2008030B10084311024853143
:100BF8008131DF21853182311F2285318131952173
:100C080085318131812185315E30F0000130F1007C
:100C180082315322853105308231392285310430C1
:100C280082313922853105304001CB000F30CA00AE
:100C3800F130890B1D2ECA0B1D2ECB0B1D2E8631B4
:100C4800B626853100304001A7000030A6000030EC
:100C5800A5001630A400053082313922853170088C
:100C68004001CA007108CB00CC01CD014D08F70046
:100C78004C08F6004B08F5004A08F4000030FB0069
:100C88000030FA000030F9000A30F80083311723E9
:100C9800853177084001AB007608AA007508A900DD
:100CA8007408A80084316024853140012508D100EA
:100CB8002408D0000030A7000030A6000030A500AE
:100CC8001630A40004308231392285317008400181
:100CD800CA007108CB00CC01CD014D08F7004C08C3
:100CE800F6004B08F5004A08F4000030FB0000301D
:100CF800FA000030F9000A30F800833117238531F3
:100D080077084001AB007608AA007508A9007408A6
:100D1800A80084316024853140012508CF002408CB
:100D2800CE005108A8005008A7004530A90081301E
:100D3800AA008131BD21853140014F08A8004E0825
:100D4800A7008F30A9008130AA008131BD218531EB
:100D580040015108A3005008A20085314B25853178
:100D6800172E01280530823139228631700840015A
:100D7800AA007108AB00AC01AD0104308231392200
:100D8800863170084001AE007108AF00B001B101B2
:100D98002A082E02A6002B082F3BA7002C08303B60
:100DA800A8002D08313BA9002908C9002808C80057
:100DB8002708C7002608C6004908F7004808F600B3
:100DC8004708F5004608F4000030FB000030FA0040
:100DD8000030F9000530F800833117238631770891
:100DE8004001BD007608BC007508BB007408BA0055
:100DF8000030F3000030F2000030F1000A30F0005B
:100E08005508F7005408F6005308F5005208F40096
:100E18008431BB24863173084001B5007208B400E0
:100E28007108B3007008B20032083A07A600330808
:100E38003B3DA70034083C3DA80035083D3DA900CE
:100E48002908C1002808C0002708BF002608BE00DE
:100E5800C11B3B2F4108031D3C2F4008031D3C2F9D
:100E6800E8303E0203303F3B031C3B2F3C2F4E2F04
:100E78004001C91B4E2F4908031D4D2F4808031D6B
:100E88004D2F4708031D4D2F0130460203184D2FE3
:100E98004E2F942F4001C11B602F4108031D5F2F67
:100EA8004008031D5F2F3F08031D5F2F01303E02DE
:100EB80003185F2F602F652F4001C91B642F652F12
:100EC800942F40014608D2074708D33D4808D43D2F
:100ED8004908D53DD51B7D2F5508031D7E2F540885
:100EE800031D7E2F113052022730533B031C7D2FE8
:100EF8007E2F872F00304001D5000030D4002730E6
:100F0800D3001030D2004001D51F8B2F8C2F942F87
:100F18000030D5000030D4000030D3000030D200BB
:100F28000030F3000030F2000030F1000A30F00029
:100F380040015508F7005408F6005308F500520818
:100F4800F4008431BB24863173084001B90072086B
:100F5800B8007108B7007008B60036083A07A6004E
:100F680037083B3DA70038083C3DA80039083D3DFF
:100F7800A9002908C5002808C4002708C3002608B6
:100F8800C200C51BD42F4508031DD52F4408031DD7
:100F9800D52FE93042020330433B031CD42FD52F11
:100FA800DE2F00304001C5000030C4000330C3000C
:100FB800E830C2004001C51FE22FE32FEB2F0030BD
:100FC800C5000030C4000030C3000030C200430830
:100FD800F1004208F0008231532286310800813145
:100FE80044218731D900D201D301D401D501D601DA
:080FF800D701D8014001ED2DE5
:020000040001F9
:08000000FF3FFF3FFF3FFF3F00
:0A000E00CD3FE72FFF3FFF3FFF3F0C
:00000001FF
