:040000000128F12FB3
:100924000534F0004E018D1D982C992C942C7008E0
:1009340042019A0008003530890B9E2C00004001CA
:100944001A145030890BA42C40011A101A30890B48
:10095400A92C00320800033052018C048C170C1FA0
:10096400B42CB52CB12C41019E171E088F392038A8
:100974009E0003309E041D140800F3007308F20067
:10098400F20DF20D41011D087206033972069D0035
:100994000D30890BCB2C000041019D149D18D32CE4
:1009A400D42CD02C1C08F1001B08F00008004601D0
:1009B400960145011008F039013890000E088F396E
:1009C40050388E00F0308E05F9308D008E174601B8
:1009D400161296170030F000F1008431F3248431AC
:1009E400080003307102E93003197002031CFB2C68
:1009F400FC2C002DE830F0000330F1007108F30006
:100A04007008F2000630F235F30D890B052D7208DB
:100A14004601940073089500080040011A145030F0
:100A2400890B122D40019A145030890B172D400167
:100A34009A105030890B1C2D40011A105030890B2C
:100A4400212D40019A145030890B262D40019A1013
:100A54005030890B2B2D0800400192161216941267
:100A6400941594101410141112157E01CE124E1107
:100A74004E10CE10381155307D018F00AA308F00F2
:100A84000F1005307E01A20002307D01CB0003303F
:100A94007E01A50055307D018F00AA308F000F1410
:100AA4000800700871040319582D592D822DF50181
:100AB400F50A652D0130F035F10D890B5D2D0130FE
:100AC400F4007408F507F11F682D692D5C2D710879
:100AD4007302031D6F2D70087202031C722D732D97
:100AE400772D7008F2027108F33B0130F136F00CF7
:100AF400890B782D0130F502031D812D822D692D7E
:100B04007308F1007208F0000800F501F60170089E
:100B1400710403198E2D8F2DBE2DF701F70A9B2D1D
:100B24000130F035F10D890B932D0130F400740878
:100B3400F707F11F9E2D9F2D922D0130F535F60DEF
:100B4400890BA02D71087302031DAA2D700872026F
:100B5400031CAD2DAE2DB32D7008F2027108F33BCA
:100B640075140130F136F00C890BB42D0130F70205
:100B7400031DBD2DBE2D9F2D7608F1007508F000D4
:100B8400080042019F151E151E1240012508A900E8
:100B94002608AA002708AB002808AC000230A935B3
:100BA400AA0DAB0DAC0D890BD12D2C08F7002B0829
:100BB400F6002A08F5002908F4000130FB00E830AB
:100BC400FA004830F9000030F80086316626853195
:100BD400FF3074074001AD00FF30753DAE00FF30BB
:100BE400763DAF00FF30773DB0002D0842019B00F9
:100BF40040012D08A9002E08AA002F08AB003008D8
:100C0400AC000830AC36AB0CAA0CA90C890B042E32
:100C1400290842019C001E131D131D169E169D17C4
:100C2400080000304001A0000030A1000030A20004
:100C3400A3012308203E860087010A30F00000301B
:100C4400F1007908F3007808F200853153258631E4
:100C5400700881000A30F0000030F1007908F300D8
:100C64007808F2008531872586317108F90070080B
:100C7400F8000130FA007A084001A3070330230288
:100C8400031C452E462E1B2EA40103302402031CF4
:100C94004C2E4D2E4E2E652E0130FA00240A532E72
:100CA400FA35890B522E7A08F0002408203E86007B
:100CB400870101088631C12686310130FA007A089D
:100CC4004001A407472E080000304001A300003073
:100CD400A2000030A1000030A0007708760475045B
:100CE40074040319762E772EB82EA401A40A852E37
:100CF4000130F435F50DF60DF70D890B7B2E01301F
:100D0400FC007C08A407F71F882E892E7A2E013058
:100D1400A035A10DA20DA30D890B8A2E77087B02A5
:100D2400031D9E2E76087A02031D9E2E75087902F5
:100D3400031D9E2E74087802031CA12EA22EAB2E36
:100D44007408F8027508F93B7608FA3B7708FB3B10
:100D540020140130F736F60CF50CF40C890BAC2E8C
:100D64000130A402031DB72EB82E892E2308F700E4
:100D74002208F6002108F5002008F4000800F3001A
:100D8400E32EFC30F7000B2F6030F7000B2FDA3026
:100D9400F7000B2FF230F7000B2F6630F7000B2F04
:100DA400B630F7000B2FBE30F7000B2FE030F70002
:100DB4000B2FFE30F7000B2FF630F7000B2FF70147
:100DC4000B2F7308F100F2017208003A0319EB2E9D
:100DD400E12E7108003A0319C32E013A0319C62EF5
:100DE400033A0319C92E013A0319CC2E073A031901
:100DF400CF2E013A0319D22E033A0319D52E013A04
:100E04000319D82E0F3A0319DB2E013A0319DE2EEB
:100E1400E12EF40170080139F100F10D40011A08C6
:100E24007106FD3971069A0084319D2486310310C0
:100E3400F00C0130F1007108F40704307402031C53
:100E4400242F252F0C2FF50140019A1084319D2465
:100E540086310130F1007108F50706307502031C74
:100E6400342F352F262FF60177080139F100F10DC3
:100E740040011A087106FD3971069A0084319D24D7
:100E840086310310F70C0130F1007108F6070830C1
:100E94007602031C4E2F4F2F362F85310F258631B6
:100EA400080085312E25873100304001A80000302C
:100EB400A7002530A6008030A5008531C3258731E1
:100EC4008431AD2487318431D92487315E30F000F8
:100ED4000130F1008431F324873105308431BF249B
:100EE400873104308431BF24873113308431BF24E7
:100EF40087310030F7000030F6000330F500FF3092
:100F0400F40005308431BF24873170084001B100FA
:100F14007108B200B301B4010C30B135B20DB30D98
:100F2400B40D890B8F2F3408FB003308FA00320804
:100F3400F9003108F80086316626873177084001C8
:100F4400B8007608B7007508B6007408B50000301C
:100F5400F7000030F6000030F5006430F400380883
:100F6400FB003708FA003608F9003508F800863126
:100F74006626873174084001C200420884319324F4
:100F8400873140014108F1004008F0008431F32426
:100F9400873140014108F9004008F80086311326E2
:100FA400873129304001B2009630B1007F30890B7F
:100FB400D92FB10BD92FB20BD92F01304001C00763
:100FC4000030C13DE7304006033003194106031DDC
:100FD400EC2FED2F7B2FC001C1017B2F0128843121
:100FE40092248731C200B901BA01BB01BC01BD0121
:0C0FF400BE01BF01C001C1014001532F2C
:020000040001F9
:08000000FF3FFF3FFF3FFF3F00
:0A000E00CD3FE72FFF3FFF3FFF3F0C
:00000001FF
