:040000000128F42FB0
:100C42000534F0004E018D1D272E282E232E70080C
:100C520042019A000800033052018C048C170C1FC9
:100C6200332E342E302E41019E171E088F39203824
:100C72009E0003309E041D140800F3007308F20066
:100C8200F20DF20D41011D087206033972069D0034
:100C92000D30890B4A2E000041019D149D18522EE1
:100CA200532E4F2E1C08F1001B08F00008004601CD
:100CB200960145011008F039013890000E088F396D
:100CC20050388E00F0308E05F9308D008E174601B7
:100CD200161296170030F000F10086317226863126
:100CE200080003307102E93003197002031C7A2EE6
:100CF2007B2E7F2EE830F0000330F1007108F30004
:100D02007008F2000630F235F30D890B842E72085A
:100D120046019400730895000800400192161216CD
:100D22009412941594101410141112157E01CE12FF
:100D32004E114E10CE10381155307D018F00AA3061
:100D42008F000F1005307E01A20002307D01CB0022
:100D520003307E01A50055307D018F00AA308F003F
:100D62000F14080042019F151E151E12400125088E
:100D7200A9002608AA002708AB002808AC00023008
:100D8200A935AA0DAB0DAC0D890BC12E2C08F700AD
:100D92002B08F6002A08F5002908F4000130FB00B0
:100DA200E830FA004830F9000030F80087310327B4
:100DB2008631FF3074074001AD00FF30753DAE0053
:100DC200FF30763DAF00FF30773DB0002D08420185
:100DD2009B0040012D08A9002E08AA002F08AB0095
:100DE2003008AC000830AC36AB0CAA0CA90C890B4D
:100DF200F42E290842019C001E131D131D169E1677
:100E02009D17080000304001A3000030A20000300E
:100E1200A1000030A0007708760475047404031959
:100E2200132F142F552FA401A40A222F0130F435B9
:100E3200F50DF60DF70D890B182F0130FC007C081B
:100E4200A407F71F252F262F172F0130A035A10D3C
:100E5200A20DA30D890B272F77087B02031D3B2FC1
:100E620076087A02031D3B2F75087902031D3B2F7A
:100E720074087802031C3E2F3F2F482F7408F80293
:100E82007508F93B7608FA3B7708FB3B20140130E2
:100E9200F736F60CF50CF40C890B492F0130A4023D
:100EA200031D542F552F262F2308F7002208F60082
:100EB2002108F5002008F400080086318E268731CB
:100EC20000304001A8000030A7002530A600803085
:100ED200A5008631B326873186312C2687318631AB
:100EE200582687315E30F0000130F10086317226DB
:100EF2008731053086313E268731043086313E26E1
:100F02008731133086313E2687310030F7000030BA
:100F1200F6000330F500FF30F400053086313E263E
:100F2200873170084001B1007108B200B301B40109
:100F32000C30B135B20DB30DB40D890B9A2F3408B4
:100F4200FB003308FA003208F9003108F800873153
:100F52000327873177084001B8007608B700750883
:100F6200B6007408B5000030F7000030F60000301B
:100F7200F5006430F4003808FB003708FA00360840
:100F8200F9003508F80087310327873174084001DA
:100F9200BF003F0886312226873140013E08F1001A
:100FA2003D08F00086317226873103304001B200DD
:100FB2000830B1007730890BDC2FB10BDC2FB20B7C
:100FC200DC2F01304001BD070030BE3DE7303D0659
:100FD200033003193E06031DEF2FF02F862FBD01AC
:100FE200BE01862F0128863121268731BF00B90133
:0E0FF200BA01BB01BC01BD01BE0140015E2F72
:020000040001F9
:08000000FF3FFF3FFF3FFF3F00
:0A000E00CD3FE72FFF3FFF3FFF3F0C
:00000001FF
