:040000000128F32FB1
:10052C0005343434353436343734FB00F9017B0868
:10053C0083311D238231080040014E08F70024301E
:10054C008231BE22823108008231DE2282314301A7
:10055C0011141118B22AB32AAF2A08008231DE22F4
:10056C008231430111151119BC2ABD2AB92A080080
:10057C00F8007730F100F201F20A78088331A423F5
:10058C008231080041304001CE008231A2228231FA
:10059C008331CE2382310800430190011008F039D9
:1005AC00083890008F170F134F308D0090160800ED
:1005BC00430111081F39031DE42AE52ADE2A0F190D
:1005CC00E82AE92ADE2A08003F3406345B344F342B
:1005DC0066346D347D3407347F346F3477347C3437
:1005EC0039345E3479347134F0008231DE22823158
:1005FC00700843018C008231DE22823103104301EA
:10060C00111F03140030093D0800033052018C0403
:10061C008C170C1F122B132B0F2B41019E171E082E
:10062C008F3920389E0003309E041D140800FA00F8
:10063C0004307A02031C232B242B262B0030332B63
:10064C007908F7007A08973E840082300318013E3F
:10065C00850000088231BE228331080046019601D4
:10066C0045011008F039013890000E088F395038C8
:10067C008E00F0308E05F9308D008E174601161263
:10068C0096170030F000F1008331682383310800A5
:10069C00F3007308F200F20DF20D41011D08720611
:1006AC00033972069D000D30890B5A2B0000410155
:1006BC009D149D18622B632B5F2B1C08F1001B08EB
:1006CC00F000080003307102E93003197002031CBA
:1006DC00702B712B752BE830F0000330F100710892
:1006EC00F3007008F2000630F235F30D890B7A2B0B
:1006FC007208460194007308950008004001A000A0
:10070C0010307B02031C8B2B8C2B8E2B0030A32BDD
:10071C007B08EA3E840082300318013E8500000805
:10072C00A1007C0803199B2B9C2B9D2BA117210846
:10073C00F900200883311D2383310800F400823135
:10074C00AA22833174358231FA228331F600F50105
:10075C00BE2B75087107F30073088600870101082A
:10076C008231FA228331F6000130F3007308F50769
:10077C0076080319C22BC32BC92B72087502031CF4
:10078C00C82BC92BAF2B8231B422833176080800D9
:10079C004001A101A10AA201A001220882319B22E1
:1007AC008331003A0319DB2BDC2BE42B40012108AD
:1007BC000319E12BE22BE42BA001A00A4001200835
:1007CC00031DE92BEB2B0130EC2B0030A100013089
:1007DC00FC007C08A20704302202031CF62BF72B2A
:1007EC00D22B0800700871040319FD2BFE2B272C4B
:1007FC00F501F50A0A2C0130F035F10D890B022CAC
:10080C000130F4007408F507F11F0D2C0E2C012C8F
:10081C0071087302031D142C70087202031C172C30
:10082C00182C1C2C7008F2027108F33B0130F136C5
:10083C00F00C890B1D2C0130F502031D262C272CE6
:10084C000E2C7308F1007208F0000800400192169B
:10085C00121694129415141112157E01CE124E110B
:10086C004E10CE10381155307D018F00AA308F00FC
:10087C000F1005307E01A20002307D01CB00033049
:10088C007E01A5004E10CE104001141494141030AB
:10089C007D01C5001130C60007307E01A000083074
:1008AC00A10042010E08CF3910388E000F08CF3945
:1008BC0010388F0055307D018F00AA308F000F1437
:1008CC000800F501F6017008710403196E2C6F2CE9
:1008DC009E2CF701F70A7B2C0130F035F10D890BBA
:1008EC00732C0130F4007408F707F11F7E2C7F2C59
:1008FC00722C0130F535F60D890B802C71087302C2
:10090C00031D8A2C70087202031C8D2C8E2C932CC8
:10091C007008F2027108F33B75140130F136F00CDB
:10092C00890B942C0130F702031D9D2C9E2C7F2CDF
:10093C007608F1007508F000080084312C2484310D
:10094C0000304001A3000030A2002530A10080300F
:10095C00A0008431EE24843183310B238431833124
:10096C00342384318231D22284318231C8228431C1
:10097C005E30F0000130F1008331682384310530A2
:10098C0083314E238431043083314E238431133030
:10099C0083314E23843105304001C7000F30C6002F
:1009AC00F130890BD72CC60BD72CC70BD72C863123
:1009BC00CA268431053083314E23843171084001BD
:1009CC00A3007008A200863128268431D12C01287E
:1009DC0042019F151E151E1240012008A40021087B
:1009EC00A5002208A6002308A7000230A435A50DF7
:1009FC00A60DA70D890BFC2C2708F3002608F20086
:100A0C002508F1002408F0000130F700E830F6006A
:100A1C004830F5000030F40085313E258431FF303C
:100A2C0070074001A800FF30713DA900FF30723DF6
:100A3C00AA00FF30733DAB00280842019B00400127
:100A4C002808A4002908A5002A08A6002B08A7003E
:100A5C000830A736A60CA50CA40C890B2F2D240846
:100A6C0042019C001E131D131D169E169D17080097
:100A7C000030FC000030FB000030FA000030F900C0
:100A8C00730872047104700403194D2D4E2D8F2DB3
:100A9C00FD01FD0A5C2D0130F035F10DF20DF30D69
:100AAC00890B522D0130F8007808FD07F31F5F2DDC
:100ABC00602D512D0130F935FA0DFB0DFC0D890B14
:100ACC00612D73087702031D752D72087602031DC4
:100ADC00752D71087502031D752D70087402031CA9
:100AEC00782D792D822D7008F4027108F53B72086F
:100AFC00F63B7308F73B79140130F336F20CF10C2A
:100B0C00F00C890B832D0130FD02031D8E2D8F2DD2
:100B1C00602D7C08F3007B08F2007A08F10079085C
:100B2C00F00008004001A101F31F9D2D9E2DAB2D5F
:100B3C00F009F109F209F309F00A0319F10A031992
:100B4C00F20A0319F30AA101A10AF71FAE2DAF2D6A
:100B5C00BE2DF409F509F609F709F40A0319F50A8B
:100B6C000319F60A0319F70A0130F8007808A106F0
:100B7C000030A5000030A4000030A3000030A2001B
:100B8C0073087204710470040319CD2DCE2D0F2E31
:100B9C00A001A00ADC2D0130F035F10DF20DF30DA2
:100BAC00890BD22D0130F8007808A007F31FDF2D38
:100BBC00E02DD12D0130A235A30DA40DA50D890B6F
:100BCC00E12D73087702031DF52D72087602031DC3
:100BDC00F52D71087502031DF52D70087402031CA8
:100BEC00F82DF92D022E7008F4027108F53B7208ED
:100BFC00F63B7308F73B22140130F336F20CF10C80
:100C0C00F00C890B032E0130A002031D0E2E0F2EAB
:100C1C00E02D21080319132E142E1F2EA209A3094F
:100C2C00A409A509A20A0319A30A0319A40A031902
:100C3C00A50A2508F3002408F2002308F100220875
:100C4C00F000080027304001230210300319220263
:100C5C00031C312E322E332EC92E0330AD002D083D
:100C6C00243E860087010A30F0000030F100230892
:100C7C00F3002208F2008331F823863170088100DA
:100C8C000A30F0000030F10040012308F300220884
:100C9C00F20084316724863171084001A30070088A
:100CAC00A200FF30FD007D08AD07AD1F5E2E5F2E4C
:100CBC00352EAC01AC0AA901A90AAE0103302E06EF
:100CCC000319692E6B2E01306C2E0030A8002908F8
:100CDC000319712E722E9C2E2E08243E860087013D
:100CEC000108031D7A2E7B2E9C2E2808031D7F2EB7
:100CFC00802E9C2EAA012E0882319B228631003A2E
:100D0C000319892E8A2E922E40012C0803198F2E3E
:100D1C00902E922EAA01AA0A40012A08031D972E92
:100D2C00992E01309A2E0030AC00BF2EA901AB01D8
:100D3C002E08243E860087010108FB00FC012E08CA
:100D4C00833184238631003A0319AD2EAE2EB62E94
:100D5C0040012C080319B32EB42EB62EAB01AB0AEE
:100D6C0040012B08031DBB2EBD2E0130BE2E0030C2
:100D7C00AC000130FD007D08AE0704302E02031CD0
:100D8C00C82EC92E642E0800053083314E238631BF
:100D9C0070084001A6007108A700A801A901043041
:100DAC0083314E23863170084001AA007108AB00D4
:100DBC00AC01AD0126082A02F90027082B3BFA00EA
:100DCC0028082C3BFB0029082D3BFC007C08C500A7
:100DDC007B08C4007A08C3007908C2004508B90032
:100DEC004408B8004308B7004208B6000030F300CE
:100DFC000030F2000030F1000A30F0004B08F70030
:100E0C004A08F6004908F5004808F4008531982591
:100E1C00863173084001B1007208B0007108AF0050
:100E2C007008AE002E083607F9002F08373DFA007F
:100E3C003008383DFB003108393DFC007C08BD0012
:100E4C007B08BC007A08BB007908BA00BD1B3B2F9D
:100E5C003D08031D3C2F3C08031D3C2FE8303A0293
:100E6C0003303B3B031C3B2F3C2F4E2F4001C51B3B
:100E7C004E2F4508031D4D2F4408031D4D2F4308CD
:100E8C00031D4D2F0130420203184D2F4E2F942F6E
:100E9C004001BD1B602F3D08031D5F2F3C08031D47
:100EAC005F2F3B08031D5F2F01303A0203185F2FA1
:100EBC00602F652F4001C51B642F652F942F4001B7
:100ECC004208C8074308C93D4408CA3D4508CB3D04
:100EDC00CB1B7D2F4B08031D7E2F4A08031D7E2F35
:100EEC00113048022730493B031C7D2F7E2F872F62
:100EFC0000304001CB000030CA002730C900103050
:100F0C00C8004001CB1F8B2F8C2F942F0030CB00AF
:100F1C000030CA000030C9000030C8000030F300B7
:100F2C000030F2000030F1000A30F00040014B08B4
:100F3C00F7004A08F6004908F5004808F400853126
:100F4C009825863173084001B5007208B400710809
:100F5C00B3007008B20032083607F9003308373D89
:100F6C00FA003408383DFB003508393DFC007C089C
:100F7C00C1007B08C0007A08BF007908BE00C11B05
:100F8C00D42F4108031DD52F4008031DD52FE93060
:100F9C003E0203303F3B031CD42FD52FDE2F0030F5
:100FAC004001C1000030C0000330BF00E830BE007B
:100FBC004001C11FE22FE32FEB2F0030C1000030A6
:100FCC00C0000030BF000030BE003F08F1003E08FA
:100FDC00F0008331682386310800823196228731F4
:100FEC00CF00C801C901CA01CB01CC01CD01CE0192
:040FFC004001A32CE1
:020000040001F9
:08000000FF3FFF3FFF3FFF3F00
:0A000E00CD3FE72FFF3FFF3FFF3F0C
:00000001FF
