:040000000128F42FB0
:100B220005348531C62585314301111411189A2DDA
:100B32009B2D972D08008531C6258531430111155E
:100B42001119A42DA52DA12D0800F8007730F10070
:100B5200F201F20A78088631452685310800F00054
:100B62004E018D1DB52DB62DB12D700842019A0092
:100B72000800430190011008F039083890008F17DF
:100B82000F134F308D0090160800430111081F39D2
:100B9200031DCC2DCD2DC62D0F19D02DD12DC62D37
:100BA2000800F0008531C6258531700843018C00AC
:100BB2008531C625853103104301111F031400300E
:100BC200093D0800033052018C048C170C1FEA2DDA
:100BD200EB2DE72D41019E171E088F3920389E000C
:100BE20003309E041D140800F3007308F200F20D96
:100BF200F20D41011D087206033972069D000D3087
:100C0200890B012E000041019D149D18092E0A2E08
:100C1200062E1C08F1001B08F00008004601960190
:100C220045011008F039013890000E088F3950380C
:100C32008E00F0308E05F9308D008E1746011612A7
:100C420096170030F000F10086312926863108001F
:100C520003307102E93003197002031C312E322E67
:100C6200362EE830F0000330F1007108F30070080E
:100C7200F2000630F235F30D890B3B2E7208460165
:100C82009400730895000800F4008531922586319E
:100C920074358531D2258631F600F5015F2E75084F
:100CA2007107F30073088600870101088531D22598
:100CB2008631F6000130F3007308F5077608031950
:100CC200632E642E6A2E72087502031C692E6A2E28
:100CD200502E85319C2586317608080040019216F7
:100CE200121694129415141112157E01CE124E1181
:100CF2004E10CE10381155307D018F00AA308F0072
:100D02000F1005307E01A20002307D01CB000330BE
:100D12007E01A5004E10CE10400114149414103020
:100D22007D01C5001130C60007307E01A0000830E9
:100D3200A10042010E08CF3910388E000F08CF39BA
:100D420010388F0055307D018F00AA308F000F14AC
:100D5200080042019F151E151E1240012508A90018
:100D62002608AA002708AB002808AC000230A935E3
:100D7200AA0DAB0DAC0D890BB82E2C08F7002B0871
:100D8200F6002A08F5002908F4000130FB00E830DB
:100D9200FA004830F9000030F8008631FA26863130
:100DA200FF3074074001AD00FF30753DAE00FF30EB
:100DB200763DAF00FF30773DB0002D0842019B0029
:100DC20040012D08A9002E08AA002F08AB00300808
:100DD200AC000830AC36AB0CAA0CA90C890BEB2E7C
:100DE200290842019C001E131D131D169E169D17F5
:100DF200080000304001A3000030A2000030A10032
:100E02000030A000770876047504740403190A2FD1
:100E12000B2F4C2FA401A40A192F0130F435F50D24
:100E2200F60DF70D890B0F2F0130FC007C08A4078B
:100E3200F71F1C2F1D2F0E2F0130A035A10DA20D63
:100E4200A30D890B1E2F77087B02031D322F760814
:100E52007A02031D322F75087902031D322F74089E
:100E62007802031C352F362F3F2F7408F8027508BD
:100E7200F93B7608FA3B7708FB3B20140130F73642
:100E8200F60CF50CF40C890B402F0130A402031D63
:100E92004B2F4C2F1D2F2308F7002208F6002108A4
:100EA200F5002008F400080086316F2687310030F3
:100EB2004001A8000030A7002530A6008030A50020
:100EC2008631AA2687318531E325873186310F267F
:100ED20087318531BA2587315E30F0000130F1006B
:100EE20086312926873105308531F5258731043051
:100EF2008531F525873113308531F525873100306D
:100F0200F7000030F6000330F500FF30F400053042
:100F12008531F525873170084001B1007108B200B2
:100F2200B301B4010C30B135B20DB30DB40D890B60
:100F3200942F3408FB003308FA003208F900310814
:100F4200F8008631FA26873177084001B800760822
:100F5200B7007508B6007408B5000030F70000301D
:100F6200F6000030F5006430F4003808FB00370862
:100F7200FA003608F9003508F8008631FA2687317A
:100F820074084001BF003F088531B0258731400118
:100F92003E08F1003D08F0008631292687310A30EB
:100FA200F7000A308531A625873105304001B200AD
:100FB2000F30B100F130890BDC2FB10BDC2FB20BFB
:100FC200DC2F01304001BD070030BE3DE7303D0659
:100FD200033003193E06031DEF2FF02F802FBD01B2
:100FE200BE01802F0128853191258731BF00B901CB
:0E0FF200BA01BB01BC01BD01BE014001552F7B
:020000040001F9
:08000000FF3FFF3FFF3FFF3F00
:0A000E00CD3FE72FFF3FFF3FFF3F0C
:00000001FF
