:040000000128F32FB1
:1007D60005343434353436343734FB00F9017B08BC
:1007E60084317C248331080040013F08F70024301F
:1007F60084311D2483310800F0004E018D1D042C28
:10080600052C002C700842019A00080084313D2412
:100816008431430111141118112C122C0E2C0800CE
:1008260084313D2484314301111511191B2C1C2CD4
:10083600182C0800F8007730F100F201F20A780867
:10084600853103258431080041304001BF008331E2
:10085600F723843185312D25843108004301900129
:100866001008F039083890008F170F134F308D009D
:1008760090160800430111081F39031D432C442C10
:100886003D2C0F19472C482C3D2C08003F340634CC
:100896005B344F3466346D347D3407347F346F34C3
:1008A60077347C3439345E3479347134F0008431F1
:1008B6003D248431700843018C0084313D24843109
:1008C60003104301111F03140030093D08000330D3
:1008D60052018C048C170C1F712C722C6E2C41014A
:1008E6009E171E088F3920389E0003309E041D1463
:1008F6000800FA0004307A02031C822C832C852C13
:100906000030922C7908F7007A08EC3E8400833098
:100916000318013E8500000884311D248431080037
:10092600F3007308F200F20DF20D41011D08720684
:10093600033972069D000D30890B9F2C0000410182
:100946009D149D18A72CA82CA42C1C08F1001B088C
:10095600F00008004601960145011008F0390138FB
:1009660090000E088F3950388E00F0308E05F93021
:100976008D008E174601161296170030F000F10012
:100986008431C7248431080003307102E930031929
:100996007002031CCF2CD02CD42CE830F00003308E
:1009A600F1007108F3007008F2000630F235F30D1D
:1009B600890BD92C7208460194007308950008002B
:1009C6004001A00010307B02031CEA2CEB2CED2C1E
:1009D6000030022D7B08493E840084300318013E16
:1009E60085000008A1007C080319FA2CFB2CFC2CBE
:1009F600A1172108F900200884317C2484310800DD
:100A0600F4008431092485317435843159248531C3
:100A1600F600F5011D2D75087107F30073088600B1
:100A260087010108843159248531F6000130F3002D
:100A36007308F50776080319212D222D282D720833
:100A46007502031C272D282D0E2D84311324853184
:100A5600760808004001A101A10AA201A00122080E
:100A66008331F0238531003A03193A2D3B2D432D6E
:100A7600400121080319402D412D432DA001A00A54
:100A860040012008031D482D4A2D01304B2D003012
:100A9600A1000130FC007C08A20704302202031CDE
:100AA600552D562D312D08007008710403195C2D43
:100AB6005D2D862DF501F50A692D0130F035F10D14
:100AC600890B612D0130F4007408F507F11F6C2DB8
:100AD6006D2D602D71087302031D732D700872024F
:100AE600031C762D772D7B2D7008F2027108F33BDF
:100AF6000130F136F00C890B7C2D0130F502031D17
:100B0600852D862D6D2D7308F1007208F000080002
:100B160040019216121694129415141112157E01A4
:100B2600CE124E114E10CE10381155307D018F0069
:100B3600AA308F000F1005307E01A20002307D0121
:100B4600CB0003307E01A5004E10CE1040011414D8
:100B5600941410307D01C5001130C60007307E01A7
:100B6600A0000830A10042010E08CF3910388E00CF
:100B76000F08CF3910388F0055307D018F00AA300D
:100B86008F000F140800F501F601700871040319AF
:100B9600CD2DCE2DFD2DF701F70ADA2D0130F035DA
:100BA600F10D890BD22D0130F4007408F707F11FFF
:100BB600DD2DDE2DD12D0130F535F60D890BDF2D1E
:100BC60071087302031DE92D70087202031CEC2DD7
:100BD600ED2DF22D7008F2027108F33B7514013009
:100BE600F136F00C890BF32D0130F702031DFC2DB5
:100BF600FD2DDE2D7608F1007508F0000800420193
:100C06009F151E151E1240012508A9002608AA00D8
:100C16002708AB002808AC000230A935AA0DAB0D99
:100C2600AC0D890B102E2C08F7002B08F6002A08AD
:100C3600F5002908F4000130FB00E830FA004830DE
:100C4600F9000030F800863152268631FF307407ED
:100C56004001AD00FF30753DAE00FF30763DAF0080
:100C6600FF30773DB0002D0842019B0040012D0862
:100C7600A9002E08AA002F08AB003008AC000830E7
:100C8600AC36AB0CAA0CA90C890B432E29084201E1
:100C96009C001E131D131D169E169D17080000307E
:100CA6004001A3000030A2000030A1000030A000E7
:100CB60077087604750474040319622E632EA42E35
:100CC600A401A40A712E0130F435F50DF60DF70DC9
:100CD600890B672E0130FC007C08A407F71F742ED1
:100CE600752E662E0130A035A10DA20DA30D890B20
:100CF600762E77087B02031D8A2E76087A02031D5C
:100D06008A2E75087902031D8A2E74087802031C40
:100D16008D2E8E2E972E7408F8027508F93B7608EC
:100D2600FA3B7708FB3B20140130F736F60CF50C3E
:100D3600F40C890B982E0130A402031DA32EA42EB9
:100D4600752E2308F7002208F6002108F500200872
:100D5600F400080027304001230210300319220254
:100D6600031CB62EB72EB82E4E2F0330AD002D081D
:100D7600243E860087010A30F0000030F100230887
:100D8600F3002208F200853157258631700881006C
:100D96000A30F0000030F10040012308F300220879
:100DA600F2008531C625863171084001A30070081E
:100DB600A200FF30FD007D08AD07AD1FE32EE42E37
:100DC600BA2EAC01AC0AA901A90AAE0103302E065F
:100DD6000319EE2EF02E0130F12E0030A80029085E
:100DE6000319F62EF72E212F2E08243E86008701A2
:100DF6000108031DFF2E002F212F2808031D042F95
:100E0600052F212FAA012E088331F0238631003ABF
:100E160003190E2F0F2F172F40012C080319142F1B
:100E2600152F172FAA01AA0A40012A08031D1C2FF5
:100E36001E2F01301F2F0030AC00442FA901AB013B
:100E46002E08243E860087010108FB00FC012E08BF
:100E56008431E3248631003A0319322F332F3B2F96
:100E660040012C080319382F392F3B2FAB01AB0A51
:100E760040012B08031D402F422F0130432F003025
:100E8600AC000130FD007D08AE0704302E02031CC5
:100E96004D2F4E2FE92E080085318B2587310030E6
:100EA6004001A8000030A7002530A6008030A5002C
:100EB60086310226873184316A2487318431AD2414
:100EC60087318431312487318431272487315E305C
:100ED600F0000130F1008431C724873105308431B8
:100EE600932487310430843193248731133084313D
:100EF600932487310030F7000030F6000330F50008
:100F0600FF30F400053084319324873170084001A6
:100F1600B1007108B200B301B4010C30B135B20DA5
:100F2600B30DB40D890B912F3408FB003308FA007A
:100F36003208F9003108F8008631522687317708E1
:100F46004001B8007608B7007508B6007408B50009
:100F56000030F7000030F6000030F5006430F40091
:100F66003808FB003708FA003608F9003508F8009B
:100F760086315226873174084001C000400883310B
:100F8600FF23873140013E08F1003D08F00084311F
:100F9600C724873105304001B2000F30B100F1306F
:100FA600890BD32FB10BD32FB20BD32F40013E08A1
:100FB600A3003D08A2008631AD26873101304001ED
:100FC600BD070030BE3DE7303D06033003193E063F
:100FD600031DEE2FEF2F7D2FBD01BE017D2F0128B2
:100FE6008331EB238731C000B901BA01BB01BC01D3
:0A0FF600BD01BE01BF0140014F2FF5
:020000040001F9
:08000000FF3FFF3FFF3FFF3F00
:0A000E00CD3FE72FFF3FFF3FFF3F0C
:00000001FF
